:020000040000FA
:100000002002002091010000B1010000D500000095
:1000100000000000000000000000000000000000E0
:10002000000000000000000000000000B50100001A
:100030000000000000000000B7010000B90100004E
:10004000BB010000BB010000BB010000BB010000C0
:10005000BB010000BB010000BB010000BB010000B0
:10006000BB010000BB010000BB010000BB010000A0
:10007000BB010000BB010000BB010000BB01000090
:10008000BB010000BB010000BB010000BB01000080
:10009000BB010000BB010000BB010000BB01000070
:1000A000BB010000BB01000073020000BB010000A7
:1000B000BB010000BB010000BB010000BB01000050
:1000C0000348854601F010FA00480047C3030000CA
:1000D0002002002004207146084202D0EFF309807C
:1000E00001E0EFF308807146004A10471505000053
:1000F000F8B5204D286944071FA000680090296AC0
:10010000640F2813014201D0002018E01120C00420
:10011000014201D0194800E019488A030FD40A04AB
:10012000920F6B469B5CCA058904D20DC90E891CCF
:100130008008921C5943504301F090F98000114E01
:10014000022CB06004D0052C10D00F49A000085834
:10015000A9690907090F491C01F080F90B493060B2
:100160004A10801801F07AF97060F8BD4008EFE796
:1001700070470000000200500102020400366E01C8
:10018000001BB700000000201C1A000040420F00B6
:100190000A480B4901600B4901600B4901600B4A99
:1001A0000B491160002101600A4880470A48004756
:1001B000FEE7FEE7FEE7FEE7FEE7FEE70001005090
:1001C00059000000160000008800000024000050C4
:1001D000A55A000071010000C1000000F1B582B015
:1001E000002502A80127009000980724465D3846A4
:1001F000A040304201D090A000E090A001F0A8F90A
:10020000641EF4D58EA001F0A3F96D1C012DEBDD69
:10021000FEBD08B5022001F02DF801220021104694
:1002200001F046F8002003220090864B1202864916
:10023000012001F04EF800231A460B21012001F0A5
:1002400059F800220421012001F092F8012108460A
:1002500001F0E3F87C480C3001680E221143016084
:100260000021012001F0C0F80120784980060860D3
:1002700008BD38B57649C869C20702D0086A086265
:1002800038BD820727D5486A8007F9D50220486221
:100290006C4801786FA001F05BF96B4C0C3420685E
:1002A0000E25A843206001220021104601F000F82D
:1002B000002003220090634B12026349012001F0E9
:1002C00008F800231A460B21012001F013F82068DA
:1002D0002843206038BD8005800FFBD001204002FC
:1002E000C86138BD08B50020024600905648082372
:1002F0000121343800F0F0FDFFF78BFF08BD10B589
:10030000042000F090FB102000F02CFA00210420C3
:1003100000F039FA564C204600F094FB03210022ED
:100320000906204600F045FB012000F08BFB5148F8
:1003300000F088FBFFF7DCFE05200007816B090950
:100340000901491C8163826BF0218A431032826368
:10035000494802688A43703202600168090909014C
:10036000C91D016001680F22120391430722120385
:100370008918016010BD10B5404800F001FCE12172
:1003800049023F4800F08FFC10BD08B500223D48EF
:1003900000920099491C00918142FAD30092009981
:1003A000491C00918142FAD300920099491C0091A6
:1003B0008142FAD300920099491C00918142FAD3FC
:1003C00008BD2D4C5920C03416228821206022609F
:1003D00021602368002BF9D0FFF791FF00202060F7
:1003E000FFF7C9FF00F0B8F9014627A001F0B0F807
:1003F00000F087F901462BA001F0AAF800F087F978
:1004000001462EA001F0A4F800F090F9014631A0B9
:1004100001F09EF800F095F9014635A001F098F83A
:100420003A490120086102461021394800F006F9D6
:10043000FFF758FFFEE70000310000003000000029
:10044000200000000C0000203400074000E100E024
:10045000008400505553504920536C6176652050FC
:10046000444D413A2030782532580D0A00000000F2
:10047000103D80570800008040000050100000042C
:100480000000054060EA00000D0A434C4B5F4765E1
:100490007443505546726571203A202538640D0A20
:1004A00000000000434C4B5F476574485854467247
:1004B0006571203A202538640D0A0000434C4B5FDB
:1004C0004765744C585446726571203A202538644B
:1004D0000D0A0000434C4B5F47657450434C4B3052
:1004E00046726571203A202538640D0A000000002C
:1004F000434C4B5F47657450434C4B3146726571BA
:10050000203A202538640D0A0000000040420050C7
:100510004040005004462AA001F01AF8204600F09E
:100520002BF8FEE72C498A691202FCD408600A28DD
:1005300004D188690002FCD40D2008607047F1E7FF
:10054000254881694904FCD40068C0B2704722483C
:1005500080694004C00F70471F488069C000C00F09
:100560007047DFE700B50346FFF7DCFF184600BD24
:10057000E6E70020C043704710B50446016817A0A5
:1005800000F0E6FF18A0616800F0E2FF19A0A16882
:1005900000F0DEFF1AA0E16800F0DAFF1BA021697D
:1005A00000F0D6FF1CA0616900F0D2FF1DA0A16978
:1005B00000F0CEFF1EA0E16900F0CAFF10BD0000F0
:1005C000496E2048617264204661756C74204861F0
:1005D0006E646C65720A00000000054072302020D5
:1005E0003D20307825780A00723120203D20307877
:1005F00025780A00723220203D20307825780A00C4
:10060000723320203D20307825780A007231322064
:100610003D20307825780A006C7220203D2030780B
:1006200025780A00706320203D20307825780A0064
:10063000707372203D20307825780A00F0B50023D1
:1006400001273C469C400C4208D005685C0003260C
:10065000A640B5431646A640354305605B1C102BEB
:10066000EFD3F0BD10B58369140E8C402343836132
:10067000C3691202120A8A401343C36110BD826922
:1006800001238B409A438261C269024B8B409A439B
:10069000C261704701000100FE4881684022914319
:1006A0008160704752010A4310210A43F9494A62A6
:1006B0008A6840231A438A60CA691C239A4302430A
:1006C000CA617047F4480169042211430161F1488D
:1006D0000168802211430160F048016802689208B5
:1006E0009200026030BF01607047EB48016904224C
:1006F00091430161E748016880229143016030BF66
:100700007047E4480068C00700D0E5487047E148FA
:100710000068800702D50120C003704700207047A1
:1007200010B5FFF7E5FCDF48006810BD10B5FFF716
:10073000DFFCD84800694106DA48006800D5400867
:1007400010BD10B5FFF7D4FCD24800690106D548AA
:10075000006800D5400810BD10B5FFF7C9FCD148AE
:10076000006810BD10B50446CF49CA4B05E00A46E3
:10077000491E002A01DC002010BDDA6820469043A3
:10078000F5D1012010BDF8B5C24C0F46E56884468E
:100790001020054020680426304320601020FFF719
:1007A000E1FF2069C008C000001D2061A0690009A8
:1007B00000013843A06120696146C008C0000843B9
:1007C0002061FFF795FC002D02D12068B043206026
:1007D000F8BDB048016AC201114301627047F0B52B
:1007E00085B00C460746FFF7F4FFAA48AC4E0168F7
:1007F000002F13D00422114301601020FFF7B2FF35
:100800001120C0040290700004250390A748A84955
:10081000201888420ED8002004901CE08908890026
:10082000491C01600120FFF79DFF0020022503966F
:100830000290EBE79F48A0492018884203D8012086
:100840006400049007E09D489D492018884248D8DC
:100850000320A40004900026F6430020009001909D
:1008600020E02946039800F0F9FD9649964A411880
:10087000914216D202220146944B5143CF18944B19
:100880009F420AD8A14201D90B1B00E0631AB34270
:1008900003D21E000095019203D08E49521C8A4259
:1008A000E9D96D1C212DDCD90498029980030843F5
:1008B0000099012249029202891A08430199891E6E
:1008C0000843744908620420FFF74CFF049900981C
:1008D000491C4143039800F0C1FD0199484305B00C
:1008E000F0BD002F0FD07C496A4801620420FFF759
:1008F00039FF7AA0006800906648016A001301423F
:1009000003D00020EBE77649EEE71120C004014256
:1009100000D0744E880301D53046E0E70804800F0C
:100920006A46105CCA058904C90E891CD20D414370
:10093000B008921C504300F091FD8000CFE7F8B55D
:10094000544D0446EE68102006405C484042844204
:1009500002D84010844200D2044628680427384355
:1009600028601020FFF7FEFE286907210843286150
:10097000A86900090001A861E868C00705D0610006
:100980000020FFF72CFF044608E011206100C0049E
:10099000FFF725FFEE6804461020064001210220E3
:1009A000FFF7F1FE002E02D12868B84328606008E6
:1009B000F8BD70B54C4B85B078CB03966E4638C603
:1009C0000023840A049323061B0E0FD003039B0FFE
:1009D0009B0004ADEB582F4D18355B19E5B284052B
:1009E000E40EA5401C68AC4314431C60420E520741
:1009F00010D08200920F92006B469A58254B10330C
:100A0000D21803015B0FC001C00E834010689843E9
:100A10000843106005B070BD1E4A11693823994320
:100A20000143116170471B490A680243D243920790
:100A300002D00A6802430A60704716490A68824376
:100A40000A6070470EB5284910310EC90091019215
:100A5000810F8A00029369468A580E4951184A68E4
:100A6000C306DB0E0120984002434A600EBD0EB55E
:100A70001D491C310EC900910192810F8A00029319
:100A800069468A58034951184A68C306DB0E01209B
:100A900098402BE00002005000ED00E08000005084
:100AA000001BB7000000002080F520007F4D19F1E9
:100AB0007FB2E60EBFA68CF83F597307800F05FD85
:100AC000C0687804FF95E7FFFFB9DB00003E14F42F
:100AD00000A3E111010200002EC2880001020204FD
:100AE0005EC2000000366E013C1A000082434A607C
:100AF0000EBD70B50D4A0024146104280CD00C4DB5
:100B00002B693826B34303432B615161946110690B
:100B100003210843106170BD10690423184310615C
:100B2000F3E70249002008617047000000E000E0A0
:100B300000020050052109074860704705200007A2
:100B400080694006C00F7047052000074068704765
:100B50001E480068C007C017401C704705200007EA
:100B600000687047052000078168012211438160F9
:100B70007047052000078168022211438160704799
:100B80000521020E090751188B6801228240134388
:100B90008B60886890438860704710B50522120703
:100BA000936901242343936193690824A343034376
:100BB00093619069062398430843906110BD052016
:100BC00000078169490849008161704700010050B0
:100BD00008B5B7A000680090B648016A001301424A
:100BE00001D0002008BD1120C004014201D0B2484C
:100BF00000E0B2488A03F5D40A04920F6B469B5C6E
:100C0000CA058904D20DC90E891C8008921C59435B
:100C1000504300F023FC800008BD4A0501D568223E
:100C200082610A0503D5426901231A4342618A049D
:100C300001D5A34A82614A0401D5426C4264090489
:100C400003D58021C161816B8163704700214160C0
:100C50007047416803221203914341607047426824
:100C60008A4342600120974900030860BFF34F8F19
:100C7000BFF36F8F70470169012252021143016176
:100C8000416952101143416141680322120311432B
:100C90004160704742680A4342600120894900036D
:100CA000803908607047F0B5044687480D460FC884
:100CB00085B06E460FC67F48416980698A0103216D
:100CC000960F0005070F00202063E160A0687F49B0
:100CD0000840A060012E02D1FFF77AFF0190002D9D
:100CE0001BD0B10068464058791C00F0B7FB06469F
:100CF00069084018294600F0B1FB7549801E8842FA
:100D000007D9E9007018294600F0A8FB0009801EE9
:100D100002E0032109070843606205B0F0BD70B529
:100D2000044600200125AD070CE0002304E05B1C15
:100D3000AB4201D3002070BDA6697604F7D42368C6
:100D40000B54401C9042F0D370BDFFB505465E4881
:100D50000C4610300FC885B06E460FC65548416925
:100D6000806989018E0F0005070F012E02D1FFF760
:100D70002FFF0190002C1BD0B10068464058791C11
:100D800000F06CFB064661084018214600F066FB47
:100D90004F49801E884207D9E1007018214600F0B3
:100DA0005DFB0009801E02E0032109070843686219
:100DB0000899079808430E990843E86009B0F0BD08
:100DC000026A120A12020A43026241680122D20236
:100DD000114341607047F7B504463B4884B020306A
:100DE0000FC86D460FC502262663324841698069E7
:100DF00089018D0F0005070F012D02D1FFF7E8FED5
:100E000001900598002811D0A90068464058791C27
:100E100000F024FB0599C9004018059900F01EFB5D
:100E200000092B49801E884200D260620698002883
:100E3000A06A07D020218843A062A06A3043A06244
:100E400007B0F0BD40210843A062A06AB043F6E7B6
:100E500010B503230363C36A1E4C2340C362C36AF5
:100E600012060A431343C36210BD10B50123036386
:100E7000C36ACF24A343C362C36A11430B43C36253
:100E800010BD70B5044600200125AD070CE000231D
:100E900004E05B1CAB4201D3002070BDA6693602A2
:100EA000F7D40B5C2360401C9042F0D170BD000071
:100EB000010202040002005000366E01001BB70060
:100EC0000100000180E100E0641A00000FFFF0FF64
:100ED000FFFF0000FFF8FF00FFB581B01E460F4680
:100EE00004460025FFF722FC00900A9800280BD04A
:100EF00000980A21400848430A9900F0AFFA0A21F5
:100F0000401D00F0ABFA451E2068C008C0002060FC
:100F100001202060102E00D10026E06A0F21090276
:100F20008843E062E06A31020843E062E06A400818
:100F30004000E062002F23D0206A04210843206291
:100F4000E06DC9218843E065E06D03990F433843A4
:100F5000E065A068C6490840A060A068290408436D
:100F6000A060E06D0121C9070843E0650A980028E8
:100F700004D06900891C009800F070FA05B0F0BD3B
:100F8000E06A80210843E062DAE70168C908C90025
:100F900001607047816B0122D20311438163704766
:100FA000816B8022114381637047C16D0C22914394
:100FB000C1657047C16A802399431143C162C16D05
:100FC00008221143C165704770B50E460446FFF70D
:100FD000ADFB054640080A214843314600F03EFA81
:100FE0000A21401D00F03AFAA168A14A1140A1600F
:100FF000A168401E02041143A16041002846891CDB
:1010000000F02CFA70BD10B580688001840DFFF7E8
:101010008DFB6100891C00F021FA10BD70B5CA0774
:1010200003D0026E01231A4302668A070224002AB3
:1010300002DA026E224302664A070425002A02DA17
:10104000026E2A4302660A070823002A02DA026EA9
:101050001A430266CA0603D5826B40263243826376
:101060008A0604D5826B0126B603324382634A06A0
:1010700002D54268224342600A0602D542682A43EA
:101080004260CA0502D542681A434260890503D509
:10109000416810221143416070BD70B5CA0703D08A
:1010A000026E5208520002668A070225002A02DAFE
:1010B000026EAA4302664A070423002A02DA026E7D
:1010C0009A4302660C070822002C02DA046E94434D
:1010D0000466CC0603D5846B4026B44384638C0637
:1010E00004D5846B0126B603B44384634C0602D551
:1010F0004468AC4344600C0602D544689C43446099
:10110000CB0502D5436893434360890503D5416805
:1011100010229143416070BD02460020CB0703D0EE
:10112000536EDB0500D501208B0704D5536E9B055C
:1011300001D5022318434B0704D5536E9B0601D5F6
:10114000042318430B0704D5536E5B0601D508230F
:101150001843CB0604D5D36B1B0501D510231843C8
:101160008B0604D5D36B1B0701D5202318434B06F0
:1011700004D5536E9B0701D5402318430B0604D5B5
:10118000536E5B0701D580231843CB0505D5536EFD
:101190001B0702D5FF2301331843890505D5516E7E
:1011A000C90602D50121490208437047CA0702D087
:1011B000FF22013242668A0702D5012252024266AC
:1011C0004A0701D5202242660A0701D5402242661D
:1011D000CA0602D50122D202C2638B060822002B66
:1011E00000DAC2634B0601D5022343660B0601D524
:1011F00004234366CB0500D54266890501D510213D
:101200004166704702460020CB0703D0536E9B0314
:1012100000D501208B0704D5D36BDB0701D0022357
:1012200018434B0704D5D36B9B0701D50423184300
:101230000B0704D5D36BDB0501D508231843CB0678
:1012400004D5D36B9B0501D510231843890604D51B
:10125000516EC90301D5202108437047416D012219
:10126000114341657047416D490849004165704728
:10127000FFFF00FC78B50021744B754C01250091EF
:10128000009E2A46B240024204D03201D2181160B8
:10129000009AA154009A521C0092052AF0DB6D4A74
:1012A00011680143116078BD6A49002008607047E9
:1012B0000301664810B518180368674C23400360A3
:1012C0000368012412042404121B0A43134303601D
:1012D00010BD30B505015D48039C2818416083604E
:1012E00001680F231B0299430160016822431143E7
:1012F000016030BD70B51D46554B564C19548034B5
:10130000030000F035F905040810161C21002368BD
:101310009B099B0104E023683F263602B343090280
:101320000B43236010E023683F263604B3430904CF
:10133000F6E723683F263606B3430906F0E76368FD
:101340009B099B010B436360404900014018016801
:10135000002A08D089088900891C01603D49C96BB1
:10136000691AC16070BD89088900491C016070BD9F
:101370000301364810B5181803687424A3430360AA
:10138000036811430B43036010BD32494A6B0243AB
:101390004A6370472F494A6B82434A6370472D4B1B
:1013A00010B54033002802D0012809D103E01C68A1
:1013B000240C240402E01C681204A4B214431C6030
:1013C0000122244B8240586B002901D0104300E0D9
:1013D0009043586310BD1E49095C002903D10121C7
:1013E00081401C488160704701221A4B82400029CD
:1013F00007D0012909D0022902D1986B10439863C4
:101400007047986910439861704701010F480818A8
:101410000168802291430160704701220D4B824098
:10142000002907D0012909D0022902D1986B9043E5
:101430009863704798699043986170470101034829
:101440000818016880221143016070470080005035
:101450001400002000840050FFCF00C030B50B46C0
:10146000014600202022012409E00D46D5409D427E
:1014700005D31D469540491B254695404019154604
:10148000521E002DF1DC30BDF0B51FB40646002021
:1014900082B005464024019100901BE0019922464C
:1014A0000F46304600F042F8049A059B801A994195
:1014B00010D310461946224600F028F8361A8F41FC
:1014C0000197224601200021009F00F01FF83818E4
:1014D0004D4100902046641E0028DFDC019B0098EF
:1014E0002946324607B0F0BD064C0125064E05E000
:1014F000E36807CC2B430C3C98471034B442F7D335
:10150000FEF7E2FD941A0000B41A000010B5202A7C
:1015100004DB0146203A9140002010BD9140202379
:101520009C1A0346E3401943904010BD10B5202A91
:1015300004DB0846203AD040002110BD0B46D340C2
:10154000D0402024A21A91400843194610BD000043
:101550000FB410B503A9044B044A029800F024F814
:1015600010BC08BC04B0184765050000100000203E
:1015700030B47446641E2578641CAB4200D21D460C
:10158000635D5B00E31830BC184702E008C8121F17
:1015900008C1002AFAD170477047002001E001C15C
:1015A000121F002AFBD17047FFB591B00F460546C8
:1015B000002606E025280AD0149A139990476D1C3E
:1015C000761C28780028F5D1304615B0F0BD0024EF
:1015D00000940121F34A029400E004436D1C2B782F
:1015E0000846203B98401042F7D128782A280ED090
:1015F000022128780246303A092A15D8009A0A238F
:101600005A43303A80180C436D1C0090F1E701CF2B
:101610000090002805DA012040030443009840426E
:101620000090022004436D1C28782E2815D1042038
:10163000044368786D1C2A280AD101CF6D1C0290E2
:101640000BE002990A225143303940186D1C029078
:101650002878014630390929F3D928786C2810D028
:1016600006DC4C281AD068280ED06A2817D104E06E
:10167000742813D07A2812D110E0012040050443C9
:101680000CE00121090501E0032109050C436978FB
:10169000814203D10120000524186D1C6D1C28789F
:1016A00003906E281ED00CDC632831D004DC0028A7
:1016B0008AD0582811D1B2E064287BD069280CD197
:1016C00078E073282DD004DC6F2870D0702804D106
:1016D000A7E075286CD078286BD0149A139990479E
:1016E000761C62E06002400F022807D003280AD06F
:1016F000042838680AD006603F1D56E03868F117A4
:1017000006604160F8E738680680F5E70670F3E7A1
:101710003878694608740020487404A803900120B2
:1017200003E0386803900020C0433F1D61070FD5D8
:10173000002101E00199491C029A0191914213DABA
:101740008142F7DB019A0399895C0029F2D10BE011
:10175000002101E00199491C01918142FADB019AC3
:101760000399895C0029F5D101990098139A401AD0
:1017700000902146149B00F03BF90199801946180E
:1017800007E0039803990078491C0391149A139970
:1017900090470198401E0190401CF2D12146149BB5
:1017A000139A009800F014F986196D1C09E741E0BE
:1017B00033E034E00A200021049005916002410FDB
:1017C000022905D001CFC2179446032905D007E0AE
:1017D000FF1DFF08FF0003CF06E000B2C2179446CA
:1017E000042902D140B2C1178C46002261469445BB
:1017F00006DA0A460021404291418C462D2102E042
:10180000210504D52B216A461176012103E0E10769
:1018100001D02021F7E7019154E00A200BE01020CD
:1018200009E01020049000210420044308200591C1
:10183000029003E008200021059104906002410F0E
:10184000022905D001CF00229446032906D006E0E4
:10185000FF1DFF08FF0003CF8C4603E080B2042980
:1018600000D1C0B20021019121072BD50399702925
:1018700006D0049A1021059B4A401A4305D00EE079
:1018800040216A461176012108E06146014306D0F5
:1018900030216A4611760399517602210191049A0A
:1018A0000821059B4A401A430CD16146014301D1EE
:1018B000610707D530216A4611760121019102990D
:1018C000491E02910399582904D037A103910FA909
:1018D0000F910DE039A1F9E76146059B049AFFF7E6
:1018E000D3FD039B8C469B5C0F9A521E0F92137084
:1018F00061460143F0D10F9807A9081A20300390E0
:10190000600704D5012000048443029801E001200F
:1019100002900399884201DD401A00E0002041183E
:101920000290019809180098401A0090E00306D42C
:101930002146149B139A009800F05AF8861900204B
:10194000049008E006A9085C149A1399904704983B
:10195000401C761C049001998842F3DBE0030CD50F
:101960002146149B139A009800F042F8861904E06F
:10197000149A302013999047761C0299481E0290C1
:101980000029F5DC08E00F980F990078491C0F91A9
:10199000149A13999047761C0399481E03900029C6
:1019A000F1DCFBE6092801003031323334353637BB
:1019B000383961626364656600000000303132339B
:1019C000343536373839414243444546000000003B
:1019D000F8B5044600251E461746880404D405E0E1
:1019E00039462020B0476D1C641EF9D52846F8BD45
:1019F000FFB50446002581B01E46C80301D5302737
:101A000000E02027880404D505E038460399B04754
:101A10006D1C641EF9D5284605B0F0BD001BB7004B
:101A20000080000000D8B80510270000006CDC0220
:101A3000006CDC020000000000366E0100000000B7
:101A4000040000000C000000240000000000000062
:101A5000040000002C000000000000000400000052
:101A60002C000000001BB7000000000000800000F8
:101A700000366E01001BB70000000000008000006F
:101A800000366E01001BB70000000000008000005F
:101A900000366E01B41A0000000000201C00000097
:101AA0008A150000D01A00001C000020040200006B
:101AB0009A15000000D8B8056000000000D8B805ED
:101AC0000000000000000000000000000000000016
:040000050000019165
:00000001FF
